:020000040800F2
:1000000000000B20C101000829550008C13200087A
:100010006D540008090E00083D7100080000000042
:10002000000000000000000000000000F167000870
:10003000C92200080000000013630008016C0008DA
:10004000DB010008DB010008DB010008DB01000820
:10005000DB010008DB010008DB010008DB01000810
:10006000DB010008DB010008DB010008DB01000800
:10007000DB010008DB010008DB010008DB010008F0
:10008000DB010008DB010008DB010008DB010008E0
:10009000DB010008DB010008DB010008DB010008D0
:1000A000DB010008DB010008DB010008DB010008C0
:1000B000D56C0008DB010008DB010008DB0100084B
:1000C000DB010008DB010008DB010008DB010008A0
:1000D000DB010008956D0008DB0100082D6E0008AB
:1000E000DB0100088D650008DB010008DB0100086A
:1000F000DB010008DB010008DB010008DB01000870
:10010000DB010008B1670008396D0008DB01000859
:10011000DB010008DB010008DB010008DB0100084F
:10012000DB010008DB010008DB010008DB0100083F
:10013000DB010008DB010008DB010008DB0100082F
:10014000DB010008DB010008DB010008DB0100081F
:10015000DB010008DB010008DB010008DB0100080F
:10016000DB010008DB010008DB010008DB010008FF
:10017000DB010008DB010008552200080000000038
:10018000DB010008DB010008DB010008DB010008DF
:10019000DB010008DB010008DB01000800000000B3
:1001A000DB010008DB010008DB010008DFF80CD0F0
:1001B00000F0CAF800480047A1FB000800000B202F
:1001C0000648804706480047FEE7FEE7FEE7FEE7F1
:1001D000FEE7FEE7FEE7FEE7FEE7FEE7096C000844
:1001E000AD01000840EA01039B0703D009E008C9FC
:1001F000121F08C0042AFAD203E011F8013B00F8EC
:10020000013B521EF9D27047D2B201E000F8012B37
:10021000491EFBD270470022F6E710B513460A4686
:1002200004461946FFF7F0FF204610BD30B50446DE
:100230000020034600E05B1C934203D2E05CCD5CEF
:10024000401BF8D030BD10B500F0004420F0004055
:10025000C20DC0F3160040F400007F2A02DA00202D
:10026000014610BD0021962A03DCC2F19602D0405F
:1002700002E0963A00F039F8002CF2D00023D0EBDF
:10028000030063EB010110BD2DE9F05F054600207E
:1002900092469B4688460646814640241BE02846F7
:1002A00041464746224600F061F853465A46C01A76
:1002B000914110D311461846224600F016F82D1A27
:1002C00067EB01084F4622460120002100F00DF89F
:1002D00017EB00094E41201EA4F10104DFDC484663
:1002E00031462A464346BDE8F09F202A04DB203AE7
:1002F00000FA02F1002070479140C2F1200320FA79
:1003000003F319439040704710B541000CD0C0F37F
:10031000C751962908DC7E2909DC06DB410204D09E
:1003200000F0004040F07E5010BD002010BDC1F133
:100330009604C4F1200100FA01F1E04000F026F833
:10034000A04010BD00207047064C074D06E0E06855
:1003500040F0010394E8070098471034AC42F6D30C
:10036000FFF728FF2468090864680908202A04DBCD
:10037000203A21FA02F00021704721FA02F3D0401E
:10038000C2F1200291400843194670470029A8BFD6
:100390007047401C490008BF20F00100704710B4AE
:1003A000B0FA80FC00FA0CF050EA010404BF10BC63
:1003B000704749B1CCF1200421FA04F411FA0CF190
:1003C00018BF012121430843A3EB0C01CB1D4FEAC9
:1003D00000614FEA102042BF002010BC704700EBC4
:1003E000C35010440029A4BF10BC7047401C4900F2
:1003F00008BF20F0010010BC704770B58C1810F8D1
:10040000015B15F0070301D110F8013B2A1106D159
:1004100010F8012B03E010F8016B01F8016B5B1E73
:10042000F9D12B0705D40023521E0DD401F8013B4E
:10043000FAE710F8013BCB1A921C03E013F8015BBA
:1004400001F8015B521EF9D5A142D8D3002070BD3E
:10045000F8B504460D460E48006844600D48006833
:1004600045600C4802680A4801680B48006808F0BB
:100470008DFB0646012E0AD00748006808F040FBB5
:1004800000900098020AC1B204A006F071FEF8BD07
:100490001800F0D01C00F0D00000F0D041492061DD
:1004A000695F6E6574776F726B5F72756E206572CF
:1004B000726F72202D20747970653D256420636F02
:1004C00064653D25640D0A001CB540F60C4013F030
:1004D0000BFF104800680090002269460E4808F0A3
:1004E000B5FA01900198C0B228B10198020AC1B2D0
:1004F0000AA006F03DFE00210748006808F026FB30
:100500001149086000210448006808F02FFB0F49DA
:1005100008601CBD748601080000F0D061695F6E40
:100520006574776F726B5F63726561746520657265
:10053000726F72202D20747970653D256420636F81
:1005400064653D25640D0A001800F0D01C00F0D051
:1005500002468A4202DD501A80B27047881A80B281
:10056000FBE700002DE9F04F8DB006460F469046A0
:10057000002001909B49086000BF9A48006820B1A4
:1005800098480168022004F093FF019890B1002080
:10059000019070680078302802D102F0CDFA09E0AD
:1005A00070680078312802D102F066FA02E00DB0DE
:1005B000BDE8F08F01228C4871680BF093F90C9024
:1005C0000C9830B189A0716806F0D2FD012001902D
:1005D000D3E78548C168022004F07CFF81490860A8
:1005E0000846006818B98DA006F0C2FDF0E07E480C
:1005F0006B46C2687B4801687B480BF079FA0C9027
:100600000C9820B97848C068009988420CD08FA017
:10061000716806F0ADFD9BA006F0AAFD72480AF0D5
:1006200097FF01200190A8E702F04AFD9E4800884C
:1006300044F64251884203D09CA006F099FDC7E0E1
:10064000A448C08920280BD0A248C089182807D008
:10065000A048C089102803D09FA006F089FDB7E00C
:10066000BA46C3469B484068574638440B90994861
:100670008068D84600EB0809A048017F0C3050F88C
:1006800021100B98814205D89C48017F0C3050F80E
:1006900021000B909948017F143050F82100484503
:1006A00004D89648017F143050F82190A9F1010038
:1006B000049000200590D84686E0059802F03AFDA7
:1006C000054600240598401C0590574674E0814873
:1006D000C089202841D1285DC0100890601C285C8A
:1006E00080100990A01C285CC0100A90E01C285CB7
:1006F00007900A98C102099841EA401008990843F6
:100700000690241D307890B93846049904F0C4FC52
:100710000390069A91B2039A90B2079A00F0BEFB3A
:1007200002903846029A049904F092FA43E0307835
:10073000012809D17178079881423CDC3846069A35
:10074000049904F085FA36E03078022833D138462F
:10075000069A049904F07CFA2DE05E48C0891828B6
:1007600019D1285DC0100890601C285C8010099089
:10077000A01C285CC0100A900A98C102099841EA9E
:100780004010089908430690E41C3846069A0499DC
:1007900004F05EFA0FE04F48C08910280BD1295DA4
:1007A000601C285C41EA00200690A41C3846069A8A
:1007B000049904F04DFA7F1C0B98874287D3049864
:1007C000401E049008F10108C845FFF476AF00BF51
:1007D00005480AF0BDFE03480168022004F068FEE7
:1007E00000BFE4E61801F0D0704DFBD0424D5044FC
:1007F0006973706C6179496E4661744673A3BA4639
:1008000061696C3A204661696C20746F206F706575
:100810006E2066696C652025730D0A00424D5044B8
:100820006973706C6179496E4661744673A3BA4608
:1008300061696C20746F206D616C6C6F6320666FF2
:100840007220696D6167650D0A000000424D5044D9
:100850006973706C6179496E4661744673A3BA46D8
:1008600061696C3A206661696C20746F2072656101
:100870006420646174612066726F6D2025730D0AB7
:1008800000000000424D50446973706C6179496EFC
:100890004661744673A3BA4661696C3A2072657406
:1008A00072792E2E2E0D0A009855FBD0424D5044E1
:1008B0006973706C61793A20746869732069732078
:1008C0006E6F74206120424D502066696C650D0A80
:1008D00000000000A655FBD0424D50446973706C77
:1008E00061793A20756E737570706F7274656420EB
:1008F000666F726D61742121210D0A004429FBD0BD
:100900002DE9F04F8BB006460F469046706802F016
:10091000F5FB6B48008844F64251884205D069A037
:1009200006F026FC0BB0BDE8F08F7048C089202887
:100930000BD06E48C089182807D06C48C089102891
:1009400003D06BA006F014FCECE7BA46C346674838
:100950004068574638440A9064488068D84600EB9F
:1009600008096C48017F0C3050F821100A98814228
:1009700005D86848017F0C3050F821000A9065487E
:10098000017F143050F82100484504D86148017FA8
:10099000143050F82190A9F1010003900020049038
:1009A000D84687E07068049902F0FAFB05460024F7
:1009B0000498401C0490574674E04C48C089202895
:1009C00041D1285DC0100790601C285C8010089001
:1009D000A01C285CC0100990E01C285C06900998B7
:1009E000C102089841EA4010079908430590241D68
:1009F000307890B93846039904F04EFB0290059A7E
:100A000091B2029A90B2069A00F048FA01903846E4
:100A1000019A039904F01CF943E03078012809D1C8
:100A20007178069881423CDC3846059A039904F0B7
:100A30000FF936E03078022833D13846059A039909
:100A400004F006F92DE02948C089182819D1285D3D
:100A5000C0100790601C285C80100890A01C285CC7
:100A6000C01009900998C102089841EA40100799FE
:100A700008430590E41C3846059A039904F0E8F809
:100A80000FE01A48C08910280BD1295D601C285C32
:100A900041EA00200590A41C3846059A039904F009
:100AA000D7F87F1C0A98874287D30398401E03908B
:100AB00008F10108C845FFF475AF00BF32E7000038
:100AC0009855FBD0424D50446973706C61793A205F
:100AD00074686973206973206E6F74206120424DC1
:100AE000502066696C650D0A00000000A655FBD019
:100AF000424D50446973706C61793A20756E73751C
:100B000070706F7274656420666F726D61742121FC
:100B1000210D0A004429FBD02DE9FF4F87B017466D
:100B200098460020019040F62801012004F0D2FCF4
:100B300006904FF40061012004F0CCFC8146802136
:100B4000012004F0C7FC05904421012004F0C2FC00
:100B50000446069820B1B9F1000F01D0059828B9D4
:100B60006BA006F005FB00200190BCE0149800F09B
:100B7000D9F9059ADDE9140102F044FB0A22DDE906
:100B800005100AF0AFFE06462EB169A006F0F0FA95
:100B900002200190A7E0BA4601E00AF1010A0AF03A
:100BA00001000028F9D10AFB08F04000039044F648
:100BB0004250208003984430C4F802000020E080B6
:100BC00020814420C4F80A002820C4F80E00C4F88C
:100BD0001270C4F81680012104F10E006183102107
:100BE000A1830321C4F81E100398C4F8220042F226
:100BF0009811C4F82610C4F82A100021C4F82E1049
:100C0000C4F832104FF47840C4F836004FF4FC6159
:100C1000C4F83A101F21C4F83E10002084F84200A6
:100C200084F84300002106980AF0B9FC04AB442282
:100C3000214606980BF08BF8064616B9049844280E
:100C400008D042A006F094FA06980AF081FC03202E
:100C5000019048E008984044A0F1010B39E00025DC
:100C6000079802900BE05946029804F015FA82B2F8
:100C700028466D1C29F810200298401C0290079805
:100C8000C11902988142EED804E0002228466D1C6A
:100C900029F8102005F001000028F6D16A0004AB05
:100CA000494606980BF053F8064666B10498B0EB37
:100CB000450F08D02DA006F05BFA06980AF048FC14
:100CC000042001900FE00898584500D102E0ABF1F4
:100CD000010BC4E700BF06980AF03AFC2BA0059967
:100CE00006F046FA00BF0120069904F0E1FB4946F0
:100CF000012004F0DDFB0120059904F0D9FB214619
:100D0000012004F0D5FB01980BB0BDE8F08F000086
:100D1000424D50456E636F6465A3BAC9EAC7EBB62E
:100D2000AFCCACC4DAB4E6CAA7B0DC0D0A00000050
:100D3000424D50456E636F6465A3BAB4B4BDA8CE8E
:100D4000C4BCFECAA7B0DC0D0A000000424D5045ED
:100D50006E636F6465A3BAD0B4C8EBCDB7CEC4BC24
:100D6000FED0C5CFA2CAA7B0DC0D0A00424D504547
:100D70006E636F6465A3BAD0B4C8EBCFF1CBD8CAA9
:100D8000FDBEDDCAA7B0DC0D0A000000424D504593
:100D90006E636F6465A3BAB3C9B9A6B1A3B4E6CD57
:100DA000BCCFF1A3BA25730D0A00000010B50146AF
:100DB000C1F3031201F00F0302EB820403EB4400C2
:100DC00010BD000010B504460A48006800280ADD7E
:100DD0004FF4006108480EF062FA06480068001BF4
:100DE0000449086004E04FF4006103480EF055FA2E
:100DF00010BD0000B400F0D000200240014908609E
:100E000070470000B400F0D000BFFEE701460020AC
:100E10000BE000EBC002074B03EBC2028A4202D197
:100E2000054A10707047421CD0B20328F1DB00BFA6
:100E3000F8E70000804BFBD00801F0D010B506F0B9
:100E40009EFE11490968114BC1F30221104A012489
:100E500004290BD00F490C600C68002CFCD10D4903
:100E600008390B60096891420AD0FEE70A498C6094
:100E70008C68002CFCD10B600968914200D0FEE721
:100E800006F0F0FE10BD0000002004E0C2A507F44B
:100E9000CDB5E8B5084C0258003002402DE9FC4FB2
:100EA00003460C46052A02DA1846BDE8FC8FDD0A27
:100EB000C3F3451603F01F074FEAD42CC4F34518BB
:100EC00004F01F00019011460CFB01F0C1F1FF0E70
:100ED00005FB0E004FF0FF0E90FBFEF01FFA80F9AD
:100EE00008FB01F0C1F1FF0E06FB0E004FF0FF0EF4
:100EF00090FBFEF01FFA80FA01984843C1F1FF0E03
:100F000007FB0E004FF0FF0E90FBFEF01FFA80FB78
:100F10004FEAC92040EA4A1040EA0B0080B2009034
:100F20000098C2E730B58BB00446214601A80AF00C
:100F300095FD0546052D03D120460AF0FDFB02E094
:100F400001A80AF01AFB0BB030BD00002DE9F843F0
:100F50004FF48051012004F0BDFA80464FF48051D7
:100F6000012004F0B7FA0546B8F1000F00D06DB9C2
:100F70004146022004F09CFA2946022004F098FA27
:100F800046A006F0F5F80020BDE8F88301224CA148
:100F900050480AF0A7FC044664B14146022004F020
:100FA00087FA2946022004F083FA4BA006F0E0F805
:100FB0000020E9E751A006F0DBF84FF00009002718
:100FC0005DE044488068642148434249C968B0FBF9
:100FD000F1F107F10F0081420BD33E488068642194
:100FE00048433C49C968B0FBF1F739464BA006F0CD
:100FF000BFF86B464FF48052414636480AF078FD00
:1010000004467CB133480AF0A3FA4146022004F0BA
:101010004FFA2946022004F04BFA48A006F0A8F83F
:101020000020B1E74A462846009901F043FE002619
:1010300012E0A85D18F8061088420CD025480AF086
:1010400087FA4146022004F033FA2946022004F0D0
:101050002FFA012098E7761C00988642E9D3009881
:1010600081441C4880681B49C968884203D20098A3
:10107000B0F5805F03D039A006F07AF800E0A0E771
:1010800000BF14480AF064FA4146022004F010FA46
:101090002946022004F00CFA002075E743686563D6
:1010A0006B466F6E744C6962A3BAC9EAC7EBB6AF00
:1010B000CCACC4DAB4E6CAA7B0DC0D0A000000006C
:1010C000303A2F666F6E742F47424B32342E464FA4
:1010D0004E000000883AFBD0436865636B466F6E34
:1010E000744C6962A3BAB4F2BFAAD7D6BFE2CEC429
:1010F000BCFECAA7B0DC0D0A0000000043686563AF
:101100006B466F6E744C6962A3BABFAACABCD0A307
:10111000D1E9D7D6BFE20D0A00000000436865633D
:101120006B466F6E744C6962A3BAD0A3D1E9BDF867
:10113000B6C8A3BA252525640D0A00004368656377
:101140006B466F6E744C6962A3BAB6C1C8A1CAFD82
:10115000BEDDCAA7B0DC0D0A00000000436865636D
:101160006B466F6E744C6962A3BAD0A3D1E9BDF827
:10117000B6C8A3BA25253130300D0A0010B5044693
:10118000207C012804D100202074204601F01AF9A7
:1011900010BD000000200149087070472001F0D008
:1011A00000200149087070472101F0D010B540F6C9
:1011B000084013F099F84FF4006300220121084819
:1011C0000EF0D0F84FF400630222002104480EF024
:1011D000F0F84FF4006102480EF05FF810BD000017
:1011E0000020024010B54FF4406013F07DF84FF43A
:1011F000807200210B480EF021F84FF48073012219
:10120000022108480EF0AEF84FF48073032200214B
:1012100004480EF0CEF84FF0A0614FF4800012F0B9
:10122000D7FE10BD0000024000B58FB04FF45060F3
:1012300013F05AF840F6164013F056F808F0E2FEA4
:101240002F48006810B90020099001E002200990A1
:1012500020200A9000200B900C900D900E9009A871
:1012600008F0E4FE002202214E2012F0DDFB0220F5
:1012700008F0F6FE022008F0FBFE2148006828B1C5
:10128000012008F0EDFE012008F0F2FE07211D48C4
:1012900009F035FD1C4800901C48006802900020B1
:1012A00006901B48006880080790012001900020EC
:1012B00003904FF4805004904FF440300890104851
:1012C000006810B90020059001E0012005906A46F1
:1012D00007210C4809F0D6FE01220721094809F030
:1012E000FBFC00220721074809F0A0FD0721054863
:1012F00009F0E2FC08F090FE08F07AFE0FB000BDA5
:101300006000F0D000640240280005504800F0D092
:101310004C00F0D010B54FF4506012F0E5FF4FF4E0
:10132000406012F0E1FF40F6014012F0DDFF40F6B0
:10133000024012F0D9FF40F6034012F0D5FF40F60C
:10134000074012F0D1FF40F6084012F0CDFF4FF4F5
:1013500000720D2162480DF071FF4FF400730022FE
:1013600002215F480DF0FEFF4FF4007303220021BD
:101370005B480EF01EF880220D215A480DF05EFFEA
:1013800080230022022157480DF0ECFF8023032226
:10139000002154480EF00DF84FF480720D21514891
:1013A0000DF04CFF4FF48073002202214D480DF0E8
:1013B000D9FF4FF48073032200214A480DF0F9FF52
:1013C0004FF480520D2146480DF038FF4FF4805302
:1013D0000022022142480DF0C5FF4FF48053032242
:1013E00000213F480DF0E5FF4FF480420D213C48BD
:1013F0000DF024FF4FF480430022022138480DF005
:10140000B1FF4FF480430322002135480DF0D1FF96
:1014100008220D2134480DF011FF0823002202217B
:1014200031480DF09FFF0823032200212E480DF0C4
:10143000C0FF40220D212D480DF000FF4023002267
:1014400002212A480DF08EFF402303220021274865
:101450000DF0AFFF80220D2124480DF0EFFE802318
:101460000022022121480DF07DFF8023032200216C
:101470001E480DF09EFF20220D211C480DF0DEFEBF
:1014800020230022022119480DF06CFF20230322A3
:10149000002116480DF08DFF10220D2114480DF08B
:1014A000CDFE10230022022111480DF05BFF102316
:1014B000032200210E480DF07CFF40220D210C4834
:1014C0000DF0BCFE40230022022109480DF04AFF26
:1014D00040230322002106480DF06BFF10BD0000E1
:1014E000001C024000080240000C024000200240A4
:1014F0000000024010B54FF4406012F0F5FE40F6D7
:10150000014012F0F1FE4FF40043012211460B4856
:101510000DF028FF4FF400430222002107480DF090
:1015200048FF08230122114605480DF01BFF082340
:101530000222002102480DF03CFF10BD00000240D5
:101540000004024010B54FF4007118480DF0A5FEDC
:1015500040F6044012F0C8FE082301221146144848
:101560000DF000FF08230322002111480DF021FF98
:1015700008210F480DF091FE0A2000F0B5FE082169
:101580000B480DF08CFE012000F0AEFE4FF4007110
:1015900006480DF084FE0A2000F0A6FE0823002273
:1015A000114603480DF0DEFE10BD00000018024099
:1015B0000010024010B540F6014012F095FE4023A5
:1015C0000122114618480DF0CDFE402303220021D0
:1015D00015480DF0EEFE402113480DF060FE80230B
:1015E0000122114610480DF0BDFE80230322002188
:1015F0000D480DF0DEFE80210B480DF050FE4FF43B
:1016000000730122114609480DF0ACFE4FF400733F
:101610000322002105480DF0CCFE4FF40071034871
:101620000DF03BFE10BD0000000402400018024017
:1016300010B540F6014012F057FE4023012211463A
:101640000E480DF08FFE4023032200210B480DF0C1
:10165000B0FE402109480DF022FE802301221146F0
:1016600006480DF07FFE80230322002103480DF081
:10167000A0FE802101480DF012FE10BD00040240C2
:1016800010B540F6014012F02FFE40F6084012F06F
:101690002BFE20230122114610480DF063FE20236B
:1016A000022200210D480DF084FE20210B480DF090
:1016B000F6FD4FF480730122114609480DF052FEE9
:1016C0004FF480730222002105480DF072FE4FF4A2
:1016D000807103480DF0E1FD10BD000000040240E0
:1016E0000020024010B54FF4A06012F0FFF910BDC9
:1016F00010B54FF0807012F051FE10BD10B50446C9
:1017000040F6014012F0F0FD012C0CD180230122A3
:10171000114609480DF026FE8023032200210648C9
:101720000DF047FE06E02CB980230122002102487B
:101730000DF018FE10BD00000004024010B5044674
:1017400040F6014012F0D0FD012C0CD18023012283
:10175000114609480DF006FE8023032200210648A9
:101760000DF027FE06E02CB980230122002102485B
:101770000DF0F8FD10BD000000040240F0B597B078
:10178000064600274FF6FF744FF4606012F0ACFD80
:101790004FF4406012F0A8FD40F6014012F0A4FDA5
:1017A00040F6024012F0A0FD40F6034012F09CFD0E
:1017B00040F6044012F098FD40F6054012F094FD0A
:1017C00040F6064012F090FD40F6074012F08CFD06
:1017D00040F6084012F088FD01220C21FE480DF071
:1017E0002DFD012300220221FB480DF0BBFD01234A
:1017F00003220021F8480DF0DCFD02220C21F648FE
:101800000DF01CFD022300221946F3480DF0AAFD3D
:10181000022303220021F0480DF0CBFD04220C210D
:10182000ED480DF00BFD042300220221EA480DF0E3
:1018300099FD042303220021E7480DF0BAFD082298
:101840000C21E5480DF0FAFC082300220221E248B1
:101850000DF088FD082303220021DF480DF0A9FDCB
:1018600010220C21DC480DF0E9FC1023002202219B
:10187000D9480DF077FD102303220021D6480DF042
:1018800098FD20220C21D4480DF0D8FC2023002202
:101890000221D1480DF066FD202303220021CE480D
:1018A0000DF087FD4FF480520C21CB480DF0C6FCA3
:1018B0004FF4805300220221C7480DF053FD4FF42E
:1018C000805303220021C4480DF073FD4FF40052F1
:1018D0000C21C1480DF0B2FC4FF40053002202214C
:1018E000BD480DF03FFD4FF4005303220021BA48DC
:1018F0000DF05FFD4FF480420C21B7480DF09EFCC7
:101900004FF4804300220221B3480DF02BFD4FF429
:10191000804303220021B0480DF04BFD4FF40042FC
:101920000C21AD480DF08AFC4FF400430022022147
:10193000A9480DF017FD4FF4004303220021A648EB
:101940000DF037FD01220C21A4480DF077FC012396
:1019500000220221A1480DF005FD012303220021F0
:101960009E480DF026FD02220C219C480DF066FCDD
:1019700002230022194699480DF0F4FC02230322A9
:10198000002196480DF015FD04220C2193480DF01E
:1019900055FC04230022022190480DF0E3FC0423AF
:1019A000032200218D480DF004FD4FF480420C21EC
:1019B0008B480DF043FC4FF48043002202218848FD
:1019C0000DF0D0FC4FF480430322002184480DF039
:1019D000F0FC4FF400420C2181480DF02FFC4FF435
:1019E0000043002202217E480DF0BCFC4FF400436E
:1019F000032200217A480DF0DCFC01220C217848FA
:101A00000DF01CFC01230022022175480DF0AAFCF8
:101A100001230322002172480DF0CBFC02220C218D
:101A20006F480DF00BFC0223002219466C480DF0A4
:101A300099FC02230322002169480DF0BAFC8022A0
:101A40000C2168480DF0FAFB802300220221654832
:101A50000DF088FC80230322002162480DF0A9FCD0
:101A60004FF480720C215F480DF0E8FB4FF4807357
:101A7000002202215B480DF075FC4FF480730322B5
:101A8000002158480DF095FC4FF400720C21554888
:101A90000DF0D4FB4FF400730022022151480DF0E9
:101AA00061FC4FF40073032200214E480DF081FCCD
:101AB0004FF480620C214B480DF0C0FB4FF4806363
:101AC0000022022147480DF04DFC4FF480630322B1
:101AD000002144480DF06DFC4FF400620C21414898
:101AE0000DF0ACFB4FF40063002202213D480DF0E5
:101AF00039FC4FF40063032200213A480DF059FCF1
:101B00004FF480520C2137480DF098FB4FF480536E
:101B10000022022133480DF025FC4FF480530322AC
:101B2000002130480DF045FC4FF400520C212D48A7
:101B30000DF084FB4FF400530022022129480DF0E0
:101B400011FC4FF400530322002126480DF031FC14
:101B50004FF480420C2123480DF070FB4FF480437A
:101B6000002202211F480DF0FDFB4FF480430322A9
:101B700000211C480DF01DFC4FF400420C211948B7
:101B80000DF05CFB4FF400430022022115480DF0DC
:101B9000E9FB4FF400430322002112480DF009FC39
:101BA0004FF480720C210E480DF048FB4FF4807307
:101BB000002202210A480DF0D5FB4FF48073032266
:101BC000002107480DF0F5FB4FF400720C2104488A
:101BD0000DF034FB08E00000001402400018024041
:101BE000000C0240001002404FF40073002202215A
:101BF000B2480DF0B7FB4FF4007303220021AF4849
:101C00000DF0D7FB4FF480620C21AC480DF016FBB1
:101C10004FF4806300220221A8480DF0A3FB4FF48B
:101C2000806303220021A5480DF0C3FB10220C2184
:101C3000A3480DF003FB102300220221A0480DF061
:101C400091FB1023032200219D480DF0B2FB2022BE
:101C50000C219B480DF0F2FA202300220221984823
:101C60000DF080FB20230322002195480DF0A1FBFD
:101C700001220C2193480DF0E1FA012300220221F8
:101C800090480DF06FFB0123032200218D480DF0D9
:101C900090FB02220C218B480DF0D0FA0223002287
:101CA000194688480DF05EFB022303220021854877
:101CB0000DF07FFB20220C2183480DF0BFFA20237A
:101CC0000022022180480DF04DFB20230322002139
:101CD0007D480DF06EFB4FF400420C2178480DF06A
:101CE000ADFA4FF400430022022175480DF03AFB93
:101CF0004FF400430322002171480DF05AFB4FF4CA
:101D000000620C2171480DF099FA4FF40063002233
:101D100002216E480DF026FB4FF4006303220021E0
:101D20006A480DF046FB40220C2167480DF086FA08
:101D300040230022022164480DF014FB40230322BB
:101D4000002161480DF035FB80220C215E480DF02A
:101D500075FA8023002202215B480DF003FB8023EB
:101D60000322002158480DF024FB4FF480720C210F
:101D700053480DF063FA4FF480730022022150485B
:101D80000DF0F0FA4FF48073032200214C480DF05F
:101D900010FB042E01D1102500E0082542F210703E
:101DA00000F0B4FA02200B9006200A90032009905C
:101DB0000520089001200790069005900C9615903C
:101DC0000820149010201390402012908000119051
:101DD000002010904FF440600F9001200E900020E2
:101DE0000D9005A816900CA809F00EFB0120049098
:101DF00003950020029001904FF6FF7400E0641EEE
:101E00002021304609F05EFA08B1002CF7D101A874
:101E100009F0ECFA42F2107000F078FA0220049017
:101E200003950020029001904FF6FF7400E0641EBD
:101E30002021304609F046FA08B1002CF7D101A85C
:101E400009F0D4FA032004900395E02002900020CA
:101E500001904FF6FF7400E0641E2021304609F027
:101E600031FA08B1002CF7D101A809F0BFFA40F20D
:101E700021270420049003950020029001974FF63B
:101E8000FF7400E0641E2021304609F01BFA08B1FF
:101E9000002CF7D101A809F0A9FA4FF4177009F046
:101EA0003FFB4FF6FF7400E0641E2021304609F02E
:101EB00009FA08B1002CF7D117B0F0BD000C0240B0
:101EC0000018024000100240001C024000140240B2
:101ED0007FB504460D464FF4805012F005FA4FF0DE
:101EE000804015F025FE684615F049FFADF800501A
:101EF0000020ADF804000294ADF8060069464FF0EA
:101F0000804015F0DDFE0121880715F025FF002235
:101F100001211C2011F088FD4FF0804015F0CAFE11
:101F20007FBD00007FB504460D4641F2030012F06C
:101F3000DBF90F4815F0FCFD684615F020FFADF801
:101F400000500020ADF804000294ADF80600694688
:101F5000074815F0B5FE0121054815F0FDFE0022E9
:101F60000121322011F060FD014815F0A3FE7FBD74
:101F7000000C004010B5044600221146252011F047
:101F800053FD4FF4406012F0AFF94FF40072072197
:101F900026480DF053F94FF48062072123480DF0D5
:101FA0004DF94FF400730122022120480DF0DAF9B7
:101FB0004FF40073022200211C480DF0FAF94FF48F
:101FC00080630022022119480DF0CCF941F204107F
:101FD00012F08AF9164816F03BF92146144816F01B
:101FE000B9F80021124816F008FA0021104816F03E
:101FF00014FA00210E4816F0F0F904210C4816F0EE
:10200000F4F908210A4816F000FA094816F08EF98A
:1020100040F20531064816F0AAF940F207310448AB
:1020200016F0A5F900200349087010BD0000024019
:10203000001001403A01F0D010B5044600221146CC
:10204000272011F0F1FC40F6024012F04DF94FF458
:102050008062072126480DF0F1F84FF40062072155
:1020600023480DF0EBF84FF4806301220221204851
:102070000DF078F94FF40063022200211C480DF0A6
:1020800098F94FF480630022022119480DF06AF993
:1020900041F2120012F028F9164816F0D9F821463C
:1020A000144816F057F80021124816F0A6F900213E
:1020B000104816F0B2F900210E4816F08EF90421EE
:1020C0000C4816F092F908210A4816F09EF90948C2
:1020D00016F02CF940F20531064816F048F940F2A6
:1020E0000731044816F043F900200349087010BD79
:1020F00000080240004800403B01F0D038B50446DB
:10210000A06A28B1A06A009094E80F0000F048FF90
:10211000002084F82400204600F0BBF9204600F09F
:102120001CFA38BD3EB5002405E04FF0FF313848B9
:1021300040F82410641C364820384069A042F4D886
:102140000020334920398861C86100243BE0062023
:1021500001AB002211460090204603F06DFD9DF872
:102160000400FF2807D1012001AB002201460090A6
:10217000204603F061FD9DF80400FF281ED19DF864
:10218000090000069DF8081040EA01409DF807107C
:1021900040EA01209DF8061040EA01051C4820385D
:1021A0004069A84202D91A4840F82540184820380A
:1021B0008069401C16492039886103E0214615A03A
:1021C00004F0D6FF641C124820384069A042BED8F3
:1021D00000240FE00E4850F824000D4920394969C9
:1021E000884206D20A482038C069401C0849203974
:1021F000C861641C064820384069A042EAD80448F7
:102200002038C069642801D201203EBD0020FCE7CF
:10221000687AFBD04372656174654C55543A20620C
:10222000616420626C6F636B20696E6465783A2527
:10223000640D0A0038B5044600202074E06928B116
:10224000E069009094E80F0000F0AAFE204600F03C
:10225000B9F838BD10B5012007F012FF012803D1ED
:102260000749086007F004FF022007F009FF012872
:1022700004D1022007F0FCFEFEF7D6FF10BD0000DF
:102280006400F0D030B50346002016E0B3F90050EA
:102290009C68645D0C541C88641C24B21C80B3F9D7
:1022A0000040B3F90450AC4201DB00241C80441C04
:1022B00020B2DC88641E24B2DC80B3F90640002C16
:1022C00001DD9042E2DB30BD704710B5044604EBFF
:1022D000840000F01BF810BD10B50446322104FB49
:1022E00001F000F013F810BD01B50749009808602F
:1022F0004FF0E02040694FF0E021886100BF0248C4
:1023000000680028FBD108BD4001F0D001B500985D
:1023100006E0002101E04A1C91B24C29FBDB401E83
:102320000028F6D108BD70B504460D461646A078C3
:1023300028B9324629462046FEF7E2FA07E0A0789F
:10234000012804D1324629462046FEF70BF970BD1C
:1023500000B585B0054800904BF63430029000225D
:102360001146684600F004F805B000BD58A6010803
:1023700070B5A0B004460E461546206808B1A068A6
:1023800020B90C4804F0F4FE20B070BDE660256171
:10239000002060604FF48053074A084901A8009468
:1023A0000DF027FA20B90022054901A80DF0D0F957
:1023B00000BFE9E77C6709083066FBD0714A000876
:1023C000BD4A00082DE9F843044625686668A168FF
:1023D00020684718E168606800EB0108E06938B1DF
:1023E000E069009031462846D4E9022300F02AFD36
:1023F000607C00284BD1207C012823D194F8280050
:10240000052808D1E06A43463A46314600902846FE
:1024100000F0ACFD3BE094F82800042837D0206A97
:1024200040B9E06A43463A4631460090284600F0FB
:102430009DFD2CE094F8283031462846226A00F0B1
:1024400039FD24E0207C10BB94F82900052808D130
:10245000206B43463A4631460090284600F086FD00
:1024600015E094F82900042811D0606A40B9206B67
:1024700043463A4631460090284600F077FD06E094
:1024800094F8293031462846626A00F013FDBDE811
:10249000F8832DE9F843044625686668A16820683A
:1024A0004718E168606800EB0108A06A28B1A06ADB
:1024B000009094E80F0000F0C5FC94F8240018BBCD
:1024C00094F83500052808D1E06B43463A4631467A
:1024D0000090284600F04AFD3DE094F835000428BD
:1024E00039D0206B40B9E06B43463A463146009004
:1024F000284600F03BFD2EE094F835303146284662
:10250000226B00F0D7FC26E094F82400012822D1A9
:1025100094F83400052808D1A06B43463A4631466A
:102520000090284600F022FD15E094F834000428BD
:1025300011D0E06A40B9A06B43463A46314600905C
:10254000284600F013FD06E094F834303146284662
:10255000E26A00F0AFFCBDE8F8832DE9FF410446D4
:10256000216920684518616960684618207E00F07E
:1025700099FDA168B1FBF0F701210022E06901ABF0
:1025800083C30092237E31462846226A00F0A8FCCD
:10259000BDE8FF8170B50346002016E00C5CB3F97E
:1025A00002609D68AC555C88641C24B25C80B3F901
:1025B0000240B3F90450AC4201DB00245C80441CAF
:1025C00020B2DC88641C24B2DC80B3F90640B3F985
:1025D0000450AC4201DA9042E0DB70BD1CB5044609
:1025E0004FF0AA300190042001AB00221146009068
:1025F000204603F007FC042001AB002201210090DB
:10260000204603F0FFFB1CBD1CB5044600200190D2
:10261000012001AB002211460090204603F00CFB84
:102620009DF80400FF280FD1012001AB00220146D4
:102630000090204603F000FB9DF80400FF2801D124
:1026400000201CBD0120FCE70220FAE7FEB506468B
:102650000D46741C26E004F00100A84221D106209A
:1026600001AB002211460090204603F0E5FA9DF8E8
:102670000400FF2815D19DF80500FF2811D19DF811
:102680000600FF280DD19DF80700FF2809D19DF80D
:102690000800FF2805D19DF80900FF2801D1204638
:1026A000FEBD641C18484069A042D4D8002426E02E
:1026B00004F00100A84221D1062001AB00221146FE
:1026C0000090204603F0B8FA9DF80400FF2815D1C9
:1026D0009DF80500FF2811D19DF80600FF280DD1B7
:1026E0009DF80700FF2809D19DF80800FF2805D1B3
:1026F0009DF80900FF2801D12046D1E7641CB442AF
:10270000D6D34FF0FF30CBE7487AFBD02DE9FC4120
:1027100000202F498861002416E02046FFF774FF4F
:1027200088B9204603F07AF906463EB1214629A031
:1027300004F01EFD2046FFF751FF04E024488069A5
:10274000401C23498861641C21484069A042E4D8A8
:102750001F48816926A004F00BFD1D48806964288C
:1027600002D20120BDE8FC81194880695A21484302
:102770006421B0FBF1F7002500241CE02046FFF7A0
:1027800043FFB8B9E8B28DF80400280A8DF80500B7
:10279000280C8DF80600280E8DF80700042001ABE8
:1027A000022200210090204603F02CFB6D1CBD424C
:1027B00000D304E0641C06484069A042DED800BF94
:1027C000FFF7B0FC08B10220CCE70020CAE7000008
:1027D000487AFBD046544C466F726D61743A206261
:1027E00061636B20626C6F636B3A2025640D0A0095
:1027F00046544C466F726D61743A20676F6F642067
:10280000626C6F636B206E756D3A2025640D0A0053
:10281000014606484069884202D24FF0FF307047B7
:102820000248203050F82100F9E70000487AFBD038
:102830002DE9F05F05460C4616469846B6F5006F42
:1028400002D00120BDE8F09F002731E01A48006A5D
:10285000B4FBF0F01949C968B0FBF1F91648006AF9
:10286000B4FBF0F01549C968B0FBF1F201FB120AA4
:102870004846FFF7CDFF8146B9F1FF3F01D1012066
:10288000E0E72A465146484603F016F98346BBF175
:10289000000F0AD02A465146484603F00DF98346F8
:1028A000BBF1000F01D00120CCE7641C35447F1C34
:1028B0004745CBD30020C5E7488AFBD0487AFBD0F8
:1028C0001CB50446CC200190012001AB024600213A
:1028D0000090204603F096FA1CBD00002DE9FF4F42
:1028E00085B080460D461446B4F5006F03D0012034
:1028F00009B0BDE8F08F0027B4E000BF5C48006A73
:10290000B5FBF0F05B49C968B0FBF1F004905848A2
:10291000006AB5FBF0F05749C968B0FBF1F201FB62
:10292000120A5348006AB5FBF0F100FB11506043F6
:1029300003900498FFF76CFF8146B9F1FF3F01D186
:102940000120D5E70023FF225146484602F0EEFD64
:102950008346BBF1000F38D1BAF1000F02D14846CF
:10296000FFF7AEFF42465146484603F0E3F983467F
:10297000BBF1000F25D009F001014846FFF766FEC4
:102980000646B6F1FF3F17D03A4800223146C368E9
:10299000484602F07EFE8346BBF1000F08D1354861
:1029A0002030049940F821604846FFF717FE02E006
:1029B0003046FFF713FEA1E74846FFF70FFE012060
:1029C00096E76D1CA0447F1C4CE000BF09F001019C
:1029D0004846FFF73BFE0646B6F1FF3F40D025488C
:1029E000C0682449496848432249496801FB1A01E3
:1029F0000398081A02900898C01B60430299884205
:102A000003D80898C01B604302900298CDE900806B
:102A1000524631464846039B02F0C4FD8346BBF153
:102A2000000F19D113482030049940F8216048461E
:102A300002F0F4FF8346BBF1000F02D04846FFF7D7
:102A4000CDFD0298B0FBF4F0054402988044029852
:102A5000B0FBF4F0074405E03046FFF7BFFDB5E7F3
:102A6000012045E708988742FFF447AF00203FE781
:102A7000488AFBD0487AFBD010B512E001220CA1A5
:102A80000C4808F0FFFE044654B10BA004F070FBA4
:102A900015A004F06DFB4FF4FA70FFF725FC00E081
:102AA00000E0EBE700BF18A004F062FB10BD0000DF
:102AB000313A0000D055FBD0466F7263654D6F759B
:102AC0006E744E616E64466C6173683A204D6F752A
:102AD0006E74204E616E6420466C6173682066617E
:102AE000696C2121210D0A00466F7263654D6F7577
:102AF0006E744E616E64466C6173683A20726574E0
:102B000072792E2E2E0D0A00466F7263654D6F7519
:102B10006E744E616E64466C6173683A204D6F75D9
:102B20006E74204E616E6420466C6173682073750C
:102B300063636573730D0A0010B512E001220CA1E6
:102B40000C4808F09FFE044654B10BA004F010FBA3
:102B500014A004F00DFB4FF4FA70FFF7C5FB00E082
:102B600000E0EBE700BF17A004F002FB10BD00007F
:102B7000303A0000005EFBD0466F7263654D6F75A2
:102B80006E745344436172643A204D6F756E7420C5
:102B900053442063617264206661696C2121210DB8
:102BA0000A000000466F7263654D6F756E74534482
:102BB000436172643A2072657472792E2E2E0D0A6A
:102BC00000000000466F7263654D6F756E7453446C
:102BD000436172643A204D6F756E742053442063D4
:102BE00061726420737563636573730D0A0000007E
:102BF0002DE9F04104460E461548005D38B91448E9
:102C000020380168204688470120BDE8F08111483E
:102C100050F82400B04219D90F4850F82400B6FBF0
:102C2000F0F70B480C3850F8240050F827800025A6
:102C300008E0002106480C3850F824007A1940F8C2
:102C400022106D1C4545F4DB0020DEE70220DCE7A6
:102C50000401F0D038A601082CA6010870B505467D
:102C60000E46144600F0BEF8012111480CF015FB89
:102C7000022003F0A1FDC4F3074003F09DFDC4F35F
:102C8000072003F099FDE0B203F096FD03E02878F9
:102C900003F092FD6D1C301EA6F101018EB2F6D13B
:102CA000012103480CF0FBFA00F02CF870BD000085
:102CB000000802402DE9F04106460F461446012166
:102CC0000F480CF0EAFA032003F076FDC4F3074046
:102CD00003F072FDC4F3072003F06EFDE0B203F0D1
:102CE0006BFD002504E0FF2003F066FD70556D1CB0
:102CF000BD42F8D3012102480CF0D1FABDE8F081C1
:102D00000008024010B5002401210A480CF0C5FA61
:102D1000052003F051FD00BFFF2003F04DFD0446E8
:102D200004F001000028F7D1012102480CF0B7FAA5
:102D300010BD0000000802402DE9F74F81468A4689
:102D4000029D5646CB4647E0C5F30B002F1AC5F34C
:102D50000B0030B13A464FF480512148FFF7AAFFEB
:102D60000BE0C5F30B0040B9B6F5805F05D23A46DB
:102D70004FF480511A48FFF79DFF384600F042F8A3
:102D8000C5F3032417E006B917E005F0FF080DE0CE
:102D900006B90EE09BF8000008EB0421104A5054DD
:102DA0006D1C761E0BF1010B08F10108B8F1FF0F45
:102DB000EED900BF641C102CE5D300BF002409E04D
:102DC00007EB0422064901EB04204FF48071FFF762
:102DD00045FF641C102CF3D3002EB5D1BDE8FE8F47
:102DE0001C2AFBD010B5012105480CF056FA06202C
:102DF00003F0E2FC012102480CF051FA10BD000082
:102E00000008024010B50446FFF7ECFF01210C4812
:102E10000CF043FA202003F0CFFCC4F3074003F08A
:102E2000CBFCC4F3072003F0C7FCE0B203F0C4FC02
:102E3000012103480CF033FAFFF764FF10BD0000D6
:102E4000000802402DE9F84304460D4616461F4689
:102E5000DDF820803B46324629462046CDF80080EA
:102E600001F094FEBDE8F8832DE9FF4F83B0804662
:102E700017461C46DDE911ABDDF840900CB9002582
:102E800006E0012C01D1012502E0022C00D102252F
:102E9000BBF1000F01D1002600E0012633462A468F
:102EA000CDE900A902974046049902F01DF907B048
:102EB000BDE8F08F2DE9F04105460E4617461C4649
:102EC0002CB9324629463846FFF72DFA06E0012C88
:102ED00004D1324629463846FFF74AFABDE8F08168
:102EE0002DE9FF4F83B0064690469946DDF840A095
:102EF000139D484600F0D6F80746444630E0207857
:102F00007E2811DC207820280EDBDDE91110CDE9C8
:102F100000A1029022784B4630460499FFF7A4FFA7
:102F2000641C3E446D1E1BE02078812817DB60780E
:102F3000217840EA012BDDE911104B465A46CDE9D4
:102F400000A1029030460499FFF78EFFA41C06EB07
:102F50004706022D01D3AD1E02E0002500E001E08E
:102F6000002DCCD100BF07B0BDE8F08F2DE9F843AC
:102F700004460D4616461F46DDF820803B46324685
:102F800029462046CDF8008001F040FFBDE8F883D7
:102F900070B504460D462946204602F07DF870BD06
:102FA0002DE9FF5F05460E469146DDF838A0BAF1DF
:102FB000000F01D1BDE8FF9FD3464FF00008344613
:102FC0000FE02F4608E021463846FFF7E1FF2BF8D7
:102FD000180008F101087F1C05EB0900B842F2D87F
:102FE000641C03983044A042EBD800BFE2E7000025
:102FF00001480078704700002001F0D001480078B7
:10300000704700002101F0D02DE9F04780460E46C0
:10301000C8F3072708F0FF05812F01DBFE2F08DD2D
:10302000002402E000203055641C482CFAD3BDE88F
:10303000F087402D15DB7E2D13DCA5F14000A7F1B4
:103040008101C1EB411202EB811100EB410000EB69
:10305000C0004FEAC0094A4648213046FFF72AFE21
:103060001EE0802D15DBFE2D13DCA5F14100A7F13C
:103070008101C1EB411202EB811100EB410000EB39
:10308000C0004FEAC0094A4648213046FFF712FE09
:1030900006E0002402E000203055641C482CFAD3DE
:1030A00000BFC4E7014609B906207047012901D1D4
:1030B0000820FAE7022901D10C20F6E70020F4E706
:1030C0000B480268002103E0505C0A4B5854491C2D
:1030D0000E29F9D30648006800F10E02002103E032
:1030E000505C054B5854491C2829F9D300207047DF
:1030F0001801F0D09855FBD0A655FBD010B502466C
:103100001346002103E0585C084C6054491C0E290A
:10311000F9D302F10E03002103E0585C044C605423
:10312000491C2829F9D3002010BD00009855FBD078
:10313000A655FBD010B50246164CE489202C03D1CD
:10314000144C6468A1001BE0124CE489182C0AD1CD
:10315000104C646804EB440100E0491C01F00304D6
:10316000002CFAD10CE00B4CE489102C08D1094C4E
:103170006468610000E0491C01F00304002CFAD1EE
:10318000054CD4F80A4001FB0243044C2468E018C3
:1031900010BD0000A655FBD09855FBD01801F0D00B
:1031A00030B502460B46154DED89202D03D1134D48
:1031B0006D68A9001BE0114DED89182D0AD10F4D46
:1031C0006D6805EB450100E0491C01F00305002D89
:1031D000FAD10CE0094DED89102D08D1074D6D682D
:1031E000690000E0491C01F00305002DFAD1044DEF
:1031F000D5F80A5001FB0354101930BDA655FBD079
:103200009855FBD02DE9F84380468946154640F68F
:103210002801012002F05EF9064616B911A003F05C
:10322000A7FF002413E04B46424616A1284600940F
:1032300003F0AEFF01222946304608F053FB074653
:10324000042F00D106E0304608F082F9641C601CAF
:103250000028E8D100BF3146012002F029F9BDE87D
:10326000F88300004765744E65775265634E616D63
:1032700065A3BAC9EAC7EBC4DAB4E6CAA7B0DC0DE5
:103280000A00000025732F257325642E626D7000DF
:1032900010B5802103480CF05DF808B9002010BD7E
:1032A0000120FCE70004024010B5802103480CF027
:1032B00051F808B9002010BD0120FCE700040240CD
:1032C00000BFFEE710B504460120216988470020B1
:1032D000A1688847012061698847012061688847A3
:1032E0000120616988470120A16888470120616940
:1032F000884700202169884710BD70B50446012524
:1033000000202169884701206169884701206168A0
:103310008847012061698847E068804705460020AA
:1033200061688847012061698847284670BD2DE99A
:10333000F04106460F4614461D46DDF8188030461B
:1033400000F02EF9307820F00101304600F0F7F857
:10335000012805D13046FFF7B5FF0120BDE8F08117
:103360003946304600F0EBF8012804D13046FFF72B
:10337000A9FF0120F2E73046FFF7A4FF304600F036
:103380000FF9307840F00101304600F0D8F80128FC
:1033900004D13046FFF796FF0120DFE70EE0012D54
:1033A00005D14146304600F069F8207004E0002164
:1033B000304600F063F82070641C6D1E002DEED1C5
:1033C0003046FFF77FFF0020C8E72DE9F0410646B1
:1033D0000F4614461D46DDF81880304600F0E0F830
:1033E000307820F00101304600F0A9F8012805D11D
:1033F0003046FFF767FF0120BDE8F0813912304603
:1034000000F09DF8012804D13046FFF75BFF012052
:10341000F2E7F9B2304600F092F8012804D13046C4
:10342000FFF750FF0120E7E73046FFF74BFF30463C
:1034300000F0B6F8307840F00101304600F07FF837
:10344000012804D13046FFF73DFF0120D4E70EE00C
:10345000012D05D14146304600F010F8207004E0FF
:103460000021304600F00AF82070641C6D1E002D0B
:10347000EED13046FFF726FF0020BDE72DE9F041F1
:1034800004460D460026002700202169884700BF1A
:1034900012E0012061688847012061698847E0687F
:1034A000804740EA4700C7B2002061688847012092
:1034B00061698847701CC6B2082EEADB1DB9204638
:1034C00000F007F802E0204600F01EF83846BDE89C
:1034D000F08110B504460120216988470020A168C9
:1034E0008847012061698847012061688847012079
:1034F00061698847002061688847012061698847C1
:1035000000202169884710BD10B5044601202169BB
:1035100088470120A1688847012061698847012008
:103520006168884701206169884700206168884791
:1035300001206169884700202169884710BD2DE975
:10354000F04104460D4600260127012021698847E5
:1035500000BF1CE005F0800018B10120A168884779
:1035600002E00020A16888476806050E0120616915
:1035700088470120616888470120616988470020E9
:1035800061688847012061698847701CC6B2082EAF
:10359000E0DB2046FFF7B1FE07463846BDE8F08184
:1035A00010B504460020616888470120616988479A
:1035B0000120216988470120A168884701206169AD
:1035C0008847012061688847012061698847002099
:1035D000A1688847012061698847002061688847A1
:1035E00001206169884700202169884710BD2DE9C5
:1035F000F04105460F4614461E462846FFF7D0FF09
:10360000287820F001012846FFF799FF012805D10D
:103610002846FFF757FE0120BDE8F08139462846CD
:10362000FFF78DFF012804D12846FFF74BFE01204C
:10363000F2E70BE014F8011B2846FFF780FF012892
:1036400004D12846FFF73EFE0120E5E7301EA6F133
:103650000106EFD12846FFF735FE0020DCE72DE913
:10366000F04106460C4615461F463046FFF798FFC8
:10367000307820F001013046FFF761FF012805D1C5
:103680003046FFF71FFE0120BDE8F08121123046D1
:10369000FFF755FF012804D13046FFF713FE012044
:1036A000F2E7E1B23046FFF74AFF012804D1304685
:1036B000FFF708FE0120E7E70BE015F8011B304695
:1036C000FFF73DFF012804D13046FFF7FBFD012045
:1036D000DAE7381EA7F10107EFD13046FFF7F2FD18
:1036E0000020D1E710B5FDF761FD00200149086019
:1036F00010BD0000B400F0D00021016041608221C3
:1037000081604121C16023210161142141610221B5
:1037100001764FF6FF71C1610BA10162002180F8B3
:10372000241080F825108162C162016380F8341092
:1037300080F835104FF4FC6181631F21C1630021C3
:103740000164416470470000427574746F6E00003C
:1037500000B585B000203549086035490860354915
:103760000860354908603549086000F09FFF00286F
:1037700031D13220FEF7B8FD02F07AFD4FF48071AE
:10378000084602F024FD002002F05AFC2749087880
:1037900002F0E2FC2649087802F084FC254908780A
:1037A00002F064FC2449087802F09CFC2349087864
:1037B00002F072FD2248806A22490860012001025D
:1037C0000091C3237422CDE9011041041D48006813
:1037D00000F04EF810E01CA000211F22CDE90112DC
:1037E000CDE9031001201023C822D22100901E2011
:1037F00001F030FD00BFFEE74FF44951022001F017
:1038000069FE154908600846006808B900BFFEE770
:1038100012481349086013484860134888601348E9
:10382000C860084600F0A0F905B000BDA000F0D0C7
:10383000A400F0D0A800F0D0AC00F0D0B000F0D0E0
:103840004429FBD06800F0D04F5632363430204542
:1038500072726F72212100006C00F0D015630008B5
:10386000343AFBD0A15E0008116600086D6D0008B7
:103870002DE9F04704460D4616461F46DDE9099A34
:10388000DDF820800D4804600D4805600D48066095
:103890000D4807600D48C0F800800D48C0F8009042
:1038A0000C48C0F800A0FDF735FDFDF79BFC00209B
:1038B00009490860FDF7B8FCBDE8F0874800F0D082
:1038C0004C00F0D05000F0D05400F0D05800F0D0B0
:1038D0005C00F0D06000F0D06400F0D010B54FF480
:1038E0000460224908604FF400604860402088600E
:1038F000C86000010861486108464068B0F5006F83
:1039000004D01BA003F034FC00BFFEE7174840685A
:10391000C10A1F48016200F05BFD08B1012010BD23
:10392000FEF700FC50B11BA003F022FCFEF7EEFEF8
:1039300020B120A003F01CFC0220F0E724A003F03B
:1039400017FC0A48416923A003F012FC074881696B
:1039500028A003F00DFC0548C1692EA003F008FC67
:103960001BA003F005FC0020D9E70000487AFBD03B
:10397000496E697446544C3A206572726F722073B6
:103980006563746F722073697A650D0A0000000028
:10399000488AFBD0496E697446544C3A20666F726F
:1039A0006D6174206E616E6420666C6173682E2E8A
:1039B0002E0D0A00496E697446544C3A20666F72A7
:1039C0006D6174206661696C6564210D0A000000F8
:1039D0000D0A0000496E697446544C3A20746F74A5
:1039E000616C20626C6F636B206E756D3A25640D9F
:1039F0000A000000496E697446544C3A20676F6FA4
:103A00006420626C6F636B206E756D3A25640D0ADD
:103A100000000000496E697446544C3A2076616C8F
:103A2000696420626C6F636B206E756D3A25640D5E
:103A30000A00000010B500F02DF8FDF787FA28B154
:103A400004A003F095FB03F03DFA02E00BA003F0A5
:103A50008FFB10BD466F6E744C6962A3BAD7D6BF98
:103A6000E2CBF0BBB5A3ACD0E8D2AAB8FCD0C2D7A9
:103A7000D6BFE22121210D0A00000000466F6E74BE
:103A80004C6962A3BAD7D6BFE2D0A3D1E9B3C9B912
:103A9000A60D0A0010B540F6024010F025FC0123E7
:103AA0001A46194607480BF05DFC0123032200214A
:103AB00004480BF07EFC012102480BF0F0FB00F003
:103AC000CDFE10BD000802400EB5FDF773FDFDF7F9
:103AD00039FD282012490870124848601248886051
:103AE0001248C86012480861124848616420FEF715
:103AF000FBFB0120042301AA48F240110090084872
:103B0000FFF763FC18B10CA003F032FB0EBD0020E0
:103B10008DF8080001A910A003F02AFB00BFF5E70B
:103B2000BC29FBD0816B0008C16B000891320008F2
:103B3000FD160008CB220008496E697447543131E4
:103B40003531513A204661696C20746F2067657485
:103B50002069640D0A000000546F756368204944B1
:103B60003A2025730D0A000038B50446012001F003
:103B70005BF8FEF7EDFB00F09DF800F039F8174810
:103B80000460062016490870002040F2022340F22B
:103B90006312C32100907420FFF7E8F94FF44951F4
:103BA000022001F097FC0F4908600846006808B938
:103BB00000BFFEE70B48006818234FF4867240F2FE
:103BC000EB2100906920FFF7EBF9074803490968EA
:103BD000086106A003F07CFA38BD00000C01F0D0AB
:103BE0001401F0D01001F0D0D170000800000000E6
:103BF00010B504202B4908702B48FFF77DFD3420B9
:103C00002949086040F2DD20486035208860C8609E
:103C100026A00862042081F8340081F83500244889
:103C200008640846FEF76AFA1F484830FFF764FD4B
:103C300040F275101C49886440F2DD211A48C164C5
:103C400035210165416519A18166042180F87C1048
:103C500080F87D101649C0F888104830FEF74EFAFB
:103C600011489030FFF748FDB7200F49C1F8900088
:103C700040F26E210C48C0F894107321C0F89810DF
:103C8000C0F89C1009A1C0F8B010042180F8C4103D
:103C900080F8C5100649C0F8D0109030FEF72EFA13
:103CA00010BD00000801F0D0804BFBD000000000E8
:103CB0000D0E000810B5002457E0C4EBC4012C4AD7
:103CC00002EBC10000F086FD2A4830F81400C4EB76
:103CD000C401274A42F83100274830F81400C4EBE9
:103CE000C40102EBC10148604B20C4EBC40102EBEC
:103CF000C1018860C4EBC40102EBC101C8600220AD
:103D0000C4EBC40102EBC10148744FF6FF70C4EB71
:103D1000C40102EBC10148610420C4EBC40102EB01
:103D2000C1018861C4EBC40002EBC0008068C4EB31
:103D3000C4020F4B03EBC202D26850434100022081
:103D400001F0C8FBC4EBC401094A02EBC101C86120
:103D50000A48C4EBC40102EBC1014863C4EBC401CF
:103D600002EBC100FEF766FA641C052CA5D310BD5A
:103D7000584CFBD044A601084EA601080D67000868
:103D800010B502F041FF00F021FD00F01DFB4FF4E3
:103D9000E13000F019FE4FF4E13000F01DFE00F0BC
:103DA000DFFD00F0B5FD10BD10B58EB04FF44870CA
:103DB000FE4908604FF4F0704860002008720877F0
:103DC000FB4808624FF050404862FA48886202207F
:103DD000C86200240AE0F54801680C3040F824105D
:103DE0000C384168143040F82410641C022CF2D3C3
:103DF00041F21A1010F078FA4FF4406010F074FAA3
:103E000040F6014010F070FA40F6024010F06CFAF3
:103E100040F6034010F068FA40F6044010F064FAEF
:103E200040F6054010F060FA40F6064010F05CFAEB
:103E300040F6074010F058FA40F6084010F054FAE7
:103E400004220E21DC480BF0F9F9042300220221A0
:103E5000D9480BF087FA042303220021D6480BF03F
:103E6000A8FA08220E21D4480BF0E8F90823002212
:103E70000221D1480BF076FA082303220021CE4814
:103E80000BF097FA4FF480720E21CB480BF0D6F965
:103E90004FF4807300220221C7480BF063FA4FF4FD
:103EA000807303220021C4480BF083FA0122092108
:103EB000C2480BF0C3F9012300220221BF480BF0D6
:103EC00051FA012303220021BC480BF072FA4FF48F
:103ED00080620E21B8480BF0B1F94FF480630022E4
:103EE0000221B5480BF03EFA4FF480630322002113
:103EF000B1480BF05EFA4FF400620E21AE480BF0B1
:103F00009DF94FF4006300220221AB480BF02AFA1E
:103F10004FF4006303220021A7480BF04AFA022263
:103F20000921A6480BF08AF9022300221946A3486A
:103F30000BF018FA022303220021A0480BF039FAF3
:103F400040220E219E480BF079F9402300220221E5
:103F50009B480BF007FA40230322002198480BF0FE
:103F600028FA20220E2197480BF068F9202300221E
:103F7000022194480BF0F6F92023032200219148F6
:103F80000BF017FA40220E218E480BF057F9402310
:103F9000002202218B480BF0E5F940230322002187
:103FA00088480BF006FA4FF400520E2182480BF0BD
:103FB00045F94FF40053002202217F480BF0D2F95B
:103FC0004FF40053032200217B480BF0F2F94FF429
:103FD000806209217A480BF031F94FF480630022A6
:103FE000022177480BF0BEF94FF4806303220021D1
:103FF00073480BF0DEF94FF400420E216E480BF0CF
:104000001DF94FF40043002202216B480BF0AAF97E
:104010004FF400430322002167480BF0CAF9012244
:104020000E2169480BF00AF901230022022166489B
:104030000BF098F901230322002163480BF0B9F932
:1040400002220E2160480BF0F9F8022300221946E3
:104050005D480BF087F90223032200215A480BF038
:10406000A8F904220E2158480BF0E8F80423002296
:10407000022155480BF076F904230322002152480F
:104080000BF097F910220E214E480BF0D7F81023B1
:10409000002202214B480BF065F910230322002176
:1040A00048480BF086F94FF480520E2144480BF03B
:1040B000C5F84FF480530022022141480BF052F919
:1040C0004FF48053032200213D480BF072F9402247
:1040D0000E213E480BF0B2F84023002202213B485B
:1040E0000BF040F940230322002138480BF061F91E
:1040F0004FF400620E2132480BF0A0F84FF4006339
:10410000002202212E480BF02DF94FF40063032208
:1041100000212B480BF04DF910220E212A480BF0FC
:104120008DF810230022022127480BF01BF91023E1
:104130000322002124480BF03CF908220E212448D8
:104140000BF07CF808230022022121480BF00AF929
:104150000823032200211E480BF02BF94FF4807234
:104160000E2116480BF06AF84FF4807300220221EA
:1041700012480BF0F7F84FF48073032200210F4828
:104180000BF017F94FF400720E210C480BF056F8A3
:104190004FF400730022022108480BF0E3F84FF4BB
:1041A000007303220021054814E000004429FBD0DD
:1041B000000000D0C0BB0BD0001C02400004024035
:1041C000001802400010024000200240000C024093
:1041D000000002400BF0EDF84FF480620E216748BA
:1041E0000BF02CF84FF480630022022163480BF09F
:1041F000B9F84FF480630322002160480BF0D9F82E
:104200004FF400720E215E480BF018F84FF4007363
:10421000002202215A480BF0A5F84FF40073032244
:10422000002157480BF0C5F84FF480620E21544826
:104230000BF004F84FF480630022022150480BF089
:1042400091F84FF48063032200214D480BF0B1F840
:1042500080220E214B480AF0F1FF80230022022128
:1042600048480BF07FF880230322002145480BF0DB
:10427000A0F84FF400530122114643480BF072F8A6
:104280004FF40053022200213F480BF092F84FF404
:1042900000513D480BF003F813F083FD01A813F023
:1042A00091FE04221146F02010F054F808B900BF26
:1042B000FEE7002010F084F81C200FF055FF1C20B2
:1042C0000FF064FF08B900BFFEE700200A900B90D2
:1042D0000C900D902F20ADF806000220ADF80400E0
:1042E0008720ADF80A002220ADF8080040F2A73080
:1042F000049040F20220039040F2CF30069040F24A
:104300000F200590002007900890099001A813F055
:104310006FFD4FF4F0704FF4487300221146009087
:10432000104600F0D1FD4FF4F0704FF448730022B6
:1043300011460090012000F0C7FD002000F09CFD18
:10434000012000F085FDFF21002000F0EBFFFF21A0
:10435000012000F0E7FF012013F02EFD012013F0F3
:104360001FFE13F03BFD002000F09AFD002000F03E
:104370005BFC002000F0C8FB0EB010BD0014024032
:1043800000200240001802400008024010B5FDF76E
:1043900077F910BD10B504461CB940F614400FF073
:1043A000A3FF074951F824108A00064951F8240058
:1043B000002102F0DBFB012102480C30015510BD49
:1043C00020A60108F800F0D010B5FDF78BF910BD5C
:1043D00010B58EB04FF460600FF086FF40F60340DA
:1043E0000FF082FF40F604400FF07EFF4FF4804252
:1043F0000C2195480AF022FF4FF48043002202214D
:1044000091480AF0AFFF4FF48043032200218E4809
:104410000AF0CFFF4FF400420C218B480AF00EFF48
:104420004FF400430022022187480AF09BFF4FF41B
:1044300000430322002184480AF0BBFF01220C2123
:1044400081480AF0FBFE0123002202217E480AF087
:1044500089FF0123032200217B480AF0AAFF0222E0
:104460000C2179480AF0EAFE022300221946764818
:104470000AF078FF02230322002173480AF099FF13
:1044800080220C2171480AF0D9FE802300220221EB
:104490006E480AF067FF8023032200216B480AF070
:1044A00088FF4FF480720C2168480AF0C7FE4FF471
:1044B00080730022022165480AF054FF4FF4807394
:1044C0000322002161480AF074FF4FF400720C21AE
:1044D0005E480AF0B3FE4FF40073002202215B48ED
:1044E0000AF040FF4FF400730322002157480AF0FE
:1044F00060FF4FF480620C2154480AF09FFE4FF495
:1045000080630022022151480AF02CFF4FF480639F
:10451000032200214D480AF04CFF4FF400620C21A9
:1045200049480AF08BFE4FF40063012202214648FD
:104530000AF018FF4FF400630322002142480AF0FA
:1045400038FF4FF480520C213F480AF077FE4FF4B9
:104550008053012202213C480AF004FF4FF48053AB
:104560000322002138480AF024FF20220C2136487B
:104570000AF064FE20230122022133480AF0F2FEF1
:1045800020230322002130480AF013FF10220C21BF
:104590002D480AF053FE1023012202212A480AF076
:1045A000E1FE10230322002127480AF002FF8022A7
:1045B0000C2125480AF042FE8023012202212248D4
:1045C0000AF0D0FE8023032200211F480AF0F1FEEA
:1045D0004FF40053012200211B480AF0C3FE0520BE
:1045E0000490042003900220029001900120059085
:1045F0004FF4C020069000200790089001200990F9
:1046000000200A900B9001A80C900D9005A806F0D0
:1046100096FE012006F088FE01F06AFB6420FDF79B
:1046200063FE01F031FA0446214609A002F0A0FD24
:104630001148844204D011A002F09AFD00BFFEE7A9
:1046400000200EB010BD0000000C0240001002401F
:10465000496E69744E616E64466C6173683A204EAF
:10466000616E6420466C6173682049443A2030785A
:10467000253038580D0A0000ADF1801D496E69746F
:104680004E616E64466C6173683A206661696C20A5
:10469000746F20636865636B206E616E6420666C66
:1046A0006173682049440D0A0000000070B5FCF7F2
:1046B00021FF002001F0D0FD0A20FDF715FE0821A2
:1046C0002B480AF0EAFD0A20FDF70EFE08212848D3
:1046D0000AF0E5FD3220FDF707FE00F09BF801210E
:1046E000FF2002F059F88021122002F055F8322004
:1046F000FDF7FAFD1C2002F03FF804464FF6FF706C
:1047000000EA04241D2002F037F8044347F6A270A3
:10471000844205D0214617A002F02AFD012070BD79
:104720000A2002F029F804464FF6FF7000EA04243C
:104730000B2002F021F8044342F24260844205D08B
:10474000214612A002F014FD0220E8E700250AE04D
:10475000144A02EB45025178124A12F8150002F091
:104760001BF8681C85B2B12DF2D30020D7E70000FA
:1047700000040240496E69744F56323634303A2094
:104780004D49443A25640D0A00000000496E6974E1
:104790004F56323634303A204849443A25640D0A9F
:1047A000000000005CA4010830B50B460024048022
:1047B00044808280C4808360002104E000248568F6
:1047C0006C544C1C21B29142F8DB30BD10B5FCF7A3
:1047D0008FFF10BD00210160416032218160C16006
:1047E00000210174012141744FF6FF7141610221E2
:1047F00081610021C16101624162012180F82810BC
:1048000080F829104FF4FC61C1621F21016300216F
:104810004163704710B5FCF70BFF60200649087034
:1048200006484860064888600648C860064808612F
:104830000648486110BD00001C3AFBD0A16B00087F
:10484000E16B0008A93200083D170008D9220008D2
:1048500010B50520FCF792FF10BD000000B587B031
:1048600040F605400FF040FD41F214100FF03CFD02
:104870001A4811F08BFB4FF46072052118480AF0BA
:10488000DDFC4FF460730122022115480AF06AFD35
:104890004FF460730322002111480AF08AFD684634
:1048A00011F0A5FB4FF4827000900020019002905F
:1048B0004FF400700390002004900320059008201E
:1048C00006906946054811F079FB0721034811F06D
:1048D0005BFB024811F05FFB07B000BD00500140D8
:1048E0000014024010B5FFF751FDFFF75DFA0120FB
:1048F000FFF750FD0220FFF74DFDFFF79BF800F09A
:104900003BF8FEF725FFFEF7EDFE05F0EBFB10BDD3
:1049100010B5124800684FF47A71B0FBF1F4601ED4
:10492000B0F1807F01D301200FE0601E4FF0E02145
:1049300048610F214FF0FF3002F052FC00204FF091
:10494000E021886107200861002008B100BFFEE770
:104950000021481E02F044FC10BD00004401F0D0CC
:1049600010B5EF2140F2E730FDF7B2FAEF2140F247
:10497000E730FDF7D7FA10BD10B5FFF7A5F8002016
:1049800010490870002419E000210E48401C015510
:104990004FF6FF7104EB4402401D20F8121004EBA7
:1049A000440200EB42004180002104EB4402054830
:1049B000801D00EB42008180601CC4B2052CE3DB4B
:1049C00010BD0000D429FBD010B5044600F00CF84F
:1049D0002046FDF7CFFA10BD10B5044600F026F8CA
:1049E0002046FDF729FB10BD10B5002406E000208D
:1049F0000A4908550A490855601C04B2B4F5007FFD
:104A0000F5DB4FF4007205490648FFF7CDFE4FF481
:104A1000007203490448FFF7C7FE10BD4876FBD07B
:104A20004878FBD03076FBD03C76FBD010B5002424
:104A300005E000200A4908550A490855641CB4F5E8
:104A4000007FF6DB4FF4007205490748FFF7ACFE24
:104A50004FF4007203490548FFF7A6FE10BD0000A1
:104A6000848AFBD0848CFBD06C8AFBD0788AFBD004
:104A7000F0B505460C46A96FA4B1002000230EE056
:104A8000D1E90167BE4208D2D1E90067F65DE6547C
:104A90004E68761C4E60401C00E002E05B1C9342B6
:104AA000EED30AE04E6816448F68BE4204D24E68C8
:104AB00016444E60104600E00020F0BD2DE9FC5F7A
:104AC00007460E461446BD6F2088A98908441FFA80
:104AD00080F9A088298A08441FFA80FA6088A98989
:104AE00008441FFA80FBE088298A084480B20190BC
:104AF000B046CDF800805A4651464846019B00F02A
:104B000069F80020BDE8FC9F10B58CB00446A0B247
:104B10006B4601AA02A901F0F6FC40F617400FF01F
:104B2000E3FB0AF035FD4FF440300AF0F9FD03A82D
:104B30000AF0D6FD022006901348006A0390002078
:104B40000490FF2005909DF8080007909DF8040050
:104B500008909DF8000009904FF448700A904FF4B7
:104B6000F0700B9003A80AF01DFD0AF0E7FD00BFEE
:104B700002200AF0C9FD0028FAD002200AF0BCFD8C
:104B80000AF006FD0CB010BD4429FBD02DE9F04F12
:104B900005460C4616461F46DDF824B0A846A14639
:104BA0004FF0000A4C460FE0454608E03BF81A205B
:104BB0002146284600F04CF80AF1010A6D1C08EB6A
:104BC0000600A842F2D8641C09EB0700A042EBD80B
:104BD000BDE8F08F2DE9F04F04460D4616461F46FE
:104BE000B44202D9A24634465646BD4202D9AA462C
:104BF0003D4657464FF0000BA84610E0A1460AE09C
:104C0000099830F81B204146484600F021F80BF186
:104C1000010B09F10109B145F2D908F10108B845C4
:104C2000ECD9BDE8F08F0000084A127A82420BD01E
:104C3000064A1072D1685269044BDA601A46516113
:104C40001169936913619161704700004429FBD099
:104C5000F0B5114D2E7F0C3555F826400C3D2E7FBA
:104C6000143555F82630A04201D2994200D3F0BD48
:104C7000094D2D7A35B9084E366A04FB010726F82E
:104C8000172007E05D1E6D1A03FB0055024F3F6AB7
:104C900027F8152000BFEAE74429FBD02DE9FF4F94
:104CA00095B0834614461E465748007A68B9564860
:104CB000017F0C3050F821800C38017F143050F8FF
:104CC00021000A905D46169F1CE04F48007A01289B
:104CD00018D14D48017F0C3050F821800C38017FED
:104CE000143050F821000A90CDF82080DDF828809B
:104CF00008980A9008943446089E1698A8EB00007D
:104D0000051B5F462819B0F5487F01D9C5F54874E1
:104D1000B819B0F5F07F01D9C7F5F0763A48007AB6
:104D200040B9A94609F10100049007EB060ACDF845
:104D30000CA00EE03448007A01280AD10BEB0609DA
:104D4000CDF8109016982044A0F1010AAAF10100B4
:104D500003905146484600F09FF90290DDE90310A8
:104D600000F09AF901902848006A2749C96A08FBAF
:104D7000075201FB02000B90A8EB04000990229956
:104D800088B205AB06AA07A901F0BDFB40F61740A3
:104D90000FF0AAFA0AF0FCFB4FF440300AF0C0FC16
:104DA0000CA80AF09DFC02200F900B980C9009981B
:104DB0000D90FF200E909DF81C0010909DF818009B
:104DC00011909DF814001290139414960CA80AF0F8
:104DD000E9FB0AF0B3FC00BF02200AF095FC0028B2
:104DE000FAD002200AF088FC0AF0D2FB514648466D
:104DF000029AFFF72DFF019ADDE90310FFF728FF64
:104E000019B0BDE8F08F00004429FBD02DE9F84F20
:104E100004460D4616461F46DDF828B0B44202D9B6
:104E2000A04634464646BD4202D9A8463D464746BE
:104E3000301B00F10109781B00F1010A53464A4674
:104E400029462046CDF800B0FFF728FFBDE8F88FCF
:104E500010B504461CB9074813F028F805E0012CEA
:104E600003D10448803013F021F8012013F098F8A2
:104E700010BD00000068014010B504461CB9074889
:104E800013F01BF805E0012C03D10448803013F027
:104E900014F8012013F084F810BD000000680140F0
:104EA00028B90649064A11620021117704E0054934
:104EB000034A11620121117770470000000000D001
:104EC0004429FBD0C0BB0BD02DE9F04F8BB08046FE
:104ED0000E4617461C46149D01A813F041F86A4877
:104EE000007A012816D1B2467819A0F1010B564676
:104EF000374640F21F30A0EB0B06B6F5487F02D3D1
:104F00000BB0BDE8F08FB7F5F07F00D3F8E7A1460E
:104F10002C464D463019B0F5487F01D9C6F5487486
:104F20007819B0F5F07F01D9C7F5F075B8F1000F29
:104F30004FD106F1880080B2ADF8060030198730F5
:104F400080B2ADF8040007F1230080B2ADF80A008A
:104F50007819223080B2ADF8080002200390FF20BB
:104F60008DF810008DF814008DF813008DF81200E4
:104F70008DF811004FF4C060069007200790434859
:104F80000890032000EB440080B2ADF826004FF6F5
:104F9000FF7000EA4400ADF82400A8B2ADF8280084
:104FA00001A93B4812F090FF394812F0F3FE38484F
:104FB00012F0EEFF3448007A18B93348C4604561F6
:104FC0005DE03148007A012859D12F48C56044611D
:104FD00055E0B8F1010F52D106F1880080B2ADF86A
:104FE00006003019873080B2ADF8040007F12300C5
:104FF00080B2ADF80A007819223080B2ADF808000E
:1050000002200390FF208DF810008DF814008DF819
:1050100013008DF8120000208DF811004FF4C060CD
:105020000690072007901B480890032000EB4400DF
:1050300080B2ADF826004FF6FF7000EA4400ADF8EC
:105040002400A8B2ADF8280001A91148803012F060
:105050003BFF0F48803012F09DFE0D48803012F06B
:1050600097FF0948007A18B907480461856106E08E
:105070000548007A012802D10348056184610120B6
:1050800012F08EFF00BF3BE74429FBD0000000D0A8
:1050900000680140C0BB0BD030B502461148057F07
:1050A0000C3050F825400C38057F143050F825306E
:1050B000A24201D2994201D3002030BD0948007AB2
:1050C00030B90848006A04FB012530F81500F4E700
:1050D000581E401A03FB0200024D2D6A35F81000DD
:1050E000EBE700004429FBD02DE9FF4F85B0834654
:1050F00088461546149E25B1012D05D0022D09D1F3
:1051000005E04FF00C0908E04FF0100905E04FF002
:10511000180902E009B0BDE8F08F00BF802E0DD263
:1051200025B1012D04D0022D06D103E00C2704E0A7
:10513000102702E0242700E0ECE705E0022D01D172
:10514000482700E0E6E700BF802E20D225B1012DE0
:105150000AD0022D16D10DE0A6F1200000EB400090
:10516000374901EB800A0EE0A6F12000354901EB3A
:10517000001A08E0A6F1200000EBC000324901EB64
:10518000800A00E0C6E700BFCDF804A010E0022DC1
:1051900004D12E493046FDF737FF07E0002403E035
:1051A000FF202A490855641CBC42F9D327480190C6
:1051B000CDF8088000243EE00198005D04900020B6
:1051C000039033E0049800F0800028B1414658462F
:1051D000129AFFF73DFD06E0089820B9414658466F
:1051E000139AFFF735FD04984006000E049008F16D
:1051F00001081748017F143050F82100404500D8BD
:1052000088E70298A8EB000048450CD3DDF8088039
:105210000BF1010B0E48017F0C3050F8210058456E
:1052200000D877E705E00398401C0390039808280E
:10523000C8D300BF641CBC42BED300BF6AE70000F5
:1052400078860108EC8A0108DC9001087429FBD0FB
:105250004429FBD02DE9FF4F85B006460F469946FD
:10526000DDF85880B24607985044A0F1010B0BEBD3
:105270000900401E0490129820B1012804D0022891
:1052800006D103E0062406E0082404E00C2402E032
:1052900009B0BDE8F08F00BF00253DE018F805001B
:1052A000802818DA18F80500DDE91412CDE900129B
:1052B000029039463046DDE91223FFF715FF301919
:1052C000584505D956464F440498874201D9DFE72F
:1052D00026446D1C20E0681C18F8000018F8051022
:1052E00040EA01200390DDE914120398CDE9001291
:1052F000029039463046DDE91223FFF7F5FE06EB52
:105300004400584505D956464F440498874202D96F
:10531000BEE706EB4406AD1C18F805000028BDD119
:1053200000BFB5E770B505460C4645B90B480068A7
:1053300020F0FF00094908600846046009E00748BA
:105340008030006820F0FF00044980310860084682
:105350000460012012F024FE70BD00009868014036
:1053600010B5044613480068401C124908600846FE
:105370000068A0421DD3002008600F48006860B993
:1053800001200D49086020210C4809F088FF4FF4E6
:1053900080710B4809F081FF0BE00020064908608E
:1053A0002021064809F079FF4FF48071044809F084
:1053B00076FF10BD3400F0D03800F0D00004024079
:1053C000002002402DE9F04704460F460025A9467B
:1053D0002348005D20B922482038016820468847CC
:1053E0001FB94FF0FF30BDE8F0871E4850F8240089
:1053F000B7FBF0F61B4850F82400B7FBF0F100FBB8
:10540000117000B1761C184850F82400451E22E0A7
:1054100013480C3850F8240050F8250010B909F151
:10542000010901E04FF00009B14513D14FF0000828
:1054300009E00B480C3850F8240005EB080140F84F
:10544000216008F10108B045F3D3064850F8240064
:105450006843C8E76D1E002DDADA4FF0FF30C2E76F
:105460000401F0D02CA6010820A6010800BFFEE729
:1054700010B501460023002207E00B4850F8210038
:1054800050F8220000B15B1C521C084850F8210063
:105490009042F2D84FF47A705843044C54F82140AB
:1054A000B0FBF4F080B210BDF800F0D020A60108E7
:1054B00070B505460C4604B970BD054850F8250086
:1054C000261A31462846FDF793FB00BFF4E700009B
:1054D000EC00F0D070B504460E4631462046FFF78A
:1054E00071FF0546681C08B9002070BD024850F8DD
:1054F00024002844F9E70000EC00F0D070B5044621
:10550000002509E06D1C4FF40051064809F022FF08
:10551000A04201D1002070BD6FF07E408542F1D3E2
:105520000120F8E7000C0240704700002DE9F04729
:1055300004468A4690461D460020184908701849BE
:1055400008700870504664F39F100870C4F3870019
:1055500008703020114908700120FFF7CFFF10B10B
:105560000120BDE8F087012000F0BEF915B94FF425
:10557000006703E0012D01D14FF40467002608E025
:105580004FF0E04090F80090C84501D00120E8E7D6
:10559000761CBE42F4D30020E3E700000000017057
:1055A000000002702DE9FF4F85B08A4617461E465F
:1055B000139C0598C007B0EBCA7F03D0012009B047
:1055C000BDE8F08FB6F5006F05D2C6F3080010B93C
:1055D000C4F3080008B10120F1E7F802C0F500307B
:1055E000801B04900498844201D90120E7E75FB151
:1055F0003B4600225146059800F04BF88046B8F132
:10560000000F01D00120DAE7129803903D46B3461F
:10561000C6F50069A14500D9A14625E003982B46AF
:1056200052462946CDE901B90090059800F054F89A
:105630008046B8F1000F01D00120C0E7A4EB0904B7
:1056400014B94FF000090FE0B4F5006F05D34FF423
:1056500000696D1C4FF0000B06E0B4F5006F03D23B
:10566000A1466D1C4FF0000BB9F1000FD6D16D1C97
:10567000402D0CD2C5F140032A465146059800F052
:1056800008F88046B8F1000F01D0012097E700200C
:1056900095E72DE9F04180460E4615461F464FEA34
:1056A000C870B0EBC67F02D00120BDE8F081E819D8
:1056B000402801D90120F8E7002409E063196119A5
:1056C0003246404600F0BEF808B10120EDE7641C08
:1056D000BC42F3D30020E8E72DE9F84F074689469E
:1056E00090469A460B9CB4F5006F03D214B101208A
:1056F000BDE8F88FB4F5006F05D20C98B0F5006FD7
:1057000001D00120F4E7B4F5006F06D30C982044D3
:10571000B0F5046F01D90120EAE7F807B0EBC87FC4
:1057200004D14FEAC970B0EBCA7F01D00120DFE796
:10573000002042490870424908700870484667F3E3
:105740009F100870C7F38700087035203B49087028
:105750000120FFF7D3FE08B10120C9E785203749B2
:10576000087037490C70200A0870504668F39F1083
:105770000870C8F387000870052000F0B5F8B4F58C
:10578000006F0BD3002505E00A98405D4FF0E04123
:1057900008706D1C0C988542F6D333E0002101207F
:1057A00005F0AAFD0121084605F0A6FD002505E04B
:1057B0000A98405D4FF0E04108706D1CB5F5006F30
:1057C000F6D30A20FCF7A2FD012005F075FD064680
:1057D0004FF4016B052000F087F885201749087009
:1057E000174981F800B04FEA1B200870052000F02F
:1057F0007BF84FF0E0410E70300A0870300C0870F2
:10580000300E087010200D490870052000F06CF86B
:105810004FF42F70FCF77AFD00F078FA40280BD196
:105820004FF0E04000780090009800F0010008B1CF
:1058300001205DE700205BE7012059E700000170CF
:10584000000002702DE9F0410446884615461E46C8
:10585000E007B0EBC57F02D00120BDE8F081002059
:105860001F4908701F4908700870404664F39F1074
:105870000870C4F3870008703520194908700120AA
:10588000FFF73CFE08B10120E7E7852014490870C6
:105890000020144908700870304665F39F100870A6
:1058A000C5F387000870052000F01EF810200C4991
:1058B0000870052000F018F84FF42F70FCF726FD53
:1058C00000F024FA402809D14FF0E040077807F0B3
:1058D000010008B10120C0E70020BEE70120BCE7BD
:1058E000000001700000027000E0401E0028FCD1A2
:1058F000704700002DE9F74F82B00546164600209C
:105900000190002481460120039900F06BF887B2D2
:105910000020039900F066F81FFA80FA3146012052
:1059200000F060F81FFA80F83146002000F05AF8C5
:105930001FFA80FB87EA0A0080EA080080EA0B0071
:10594000019040F6FF710198884219D187EA080456
:10595000214610A001F00CFC2046E11704EB517128
:105960004FEAE109E11704EB5171C910A4EBC10240
:105970000121914015F80920514005F8091006E071
:105980000DA001F0F5FB012005B0BDE8F08F00206F
:10599000FAE700004E616E64454343436F727265DF
:1059A0006374696F6E3A206572726F72706F733ACA
:1059B00025640D0A000000004E616E6445434343B8
:1059C0006F7272656374696F6E3A20326269742017
:1059D000656363206572726F72206F72206D6F72E3
:1059E000650D0A0030B502460B460020002112E08A
:1059F0000C4601EBD4756D10A1EB4505954208D11D
:105A000023FA01F404F001041CB14D100124AC4050
:105A100020444C1CE1B22029EADB30BD7CB50446B1
:105A2000012001AB002211460090204600F004F94D
:105A300018BB9DF80400FF281DD1A4016020104967
:105A4000087010490C70200A0870D0200C490870AA
:105A50000520FFF749FF00F059F9402809D14FF020
:105A6000E040057805F0010008B101207CBD002070
:105A7000FCE70120FAE70120F8E70120F6E7000043
:105A8000000001700000027010B500249020084949
:105A900008700020074908700120FFF725FF01204A
:105AA000FFF722FF4FF0E0400468204610BD0000E1
:105AB00000000170000002702DE9F84F044688468E
:105AC00091460020454908704549087008704046D5
:105AD00064F39F100870C4F38700087030203F49BA
